{
  "contractName": "Item",
  "abi": [
    {
      "inputs": [
        {
          "internalType": "contract ItemManager",
          "name": "_parentContract",
          "type": "address"
        },
        {
          "internalType": "uint256",
          "name": "_priceInWei",
          "type": "uint256"
        },
        {
          "internalType": "uint256",
          "name": "_index",
          "type": "uint256"
        }
      ],
      "stateMutability": "nonpayable",
      "type": "constructor"
    },
    {
      "stateMutability": "nonpayable",
      "type": "fallback"
    },
    {
      "inputs": [],
      "name": "index",
      "outputs": [
        {
          "internalType": "uint256",
          "name": "",
          "type": "uint256"
        }
      ],
      "stateMutability": "view",
      "type": "function"
    },
    {
      "inputs": [],
      "name": "priceInWei",
      "outputs": [
        {
          "internalType": "uint256",
          "name": "",
          "type": "uint256"
        }
      ],
      "stateMutability": "view",
      "type": "function"
    },
    {
      "stateMutability": "payable",
      "type": "receive"
    }
  ],
  "bytecode": "0x608060405234801561001057600080fd5b506040516104753803806104758339818101604052606081101561003357600080fd5b81019080805190602001909291908051906020019092919080519060200190929190505050816000819055508060028190555082600360006101000a81548173ffffffffffffffffffffffffffffffffffffffff021916908373ffffffffffffffffffffffffffffffffffffffff1602179055505050506103bc806100b96000396000f3fe60806040526004361061002d5760003560e01c80632986c0e5146103035780633c8da5881461032e576102f4565b366102f457600054341461008c576040517f08c379a00000000000000000000000000000000000000000000000000000000081526004018080602001828103825260218152602001806103666021913960400191505060405180910390fd5b600060015414610104576040517f08c379a00000000000000000000000000000000000000000000000000000000081526004018080602001828103825260148152602001807f4974656d20697320616c7265616479207061696400000000000000000000000081525060200191505060405180910390fd5b346001600082825401925050819055506000600360009054906101000a900473ffffffffffffffffffffffffffffffffffffffff1673ffffffffffffffffffffffffffffffffffffffff1634600254604051602401808281526020019150506040516020818303038152906040527f800fb83f000000000000000000000000000000000000000000000000000000007bffffffffffffffffffffffffffffffffffffffffffffffffffffffff19166020820180517bffffffffffffffffffffffffffffffffffffffffffffffffffffffff83818316178352505050506040518082805190602001908083835b6020831061021357805182526020820191506020810190506020830392506101f0565b6001836020036101000a03801982511681845116808217855250505050505090500191505060006040518083038185875af1925050503d8060008114610275576040519150601f19603f3d011682016040523d82523d6000602084013e61027a565b606091505b50509050806102f1576040517f08c379a00000000000000000000000000000000000000000000000000000000081526004018080602001828103825260198152602001807f44656c697665727920646964206e6f74206e6f7420776f726b0000000000000081525060200191505060405180910390fd5b50005b34801561030057600080fd5b50005b34801561030f57600080fd5b50610318610359565b6040518082815260200191505060405180910390f35b34801561033a57600080fd5b5061034361035f565b6040518082815260200191505060405180910390f35b60025481565b6000548156fe576520646f6e277420737570706f7274207061727469616c207061796d656e7473a2646970667358221220716c805fb9f923525e6c434ffea3586c6e495f9c9b9a79542ad1e2ca8baf1dac64736f6c634300060c0033",
  "immutableReferences": {},
  "source": "pragma solidity ^0.6.0;\r\nimport \"./ItemManager.sol\" ;\r\nimport \"./Ownable.sol\";\r\ncontract Item {\r\n    uint public priceInWei ;\r\n    uint paidWei ;\r\n    uint public index ;\r\n    ItemManager parentContract ;\r\n    constructor(ItemManager _parentContract, uint _priceInWei, uint _index) public \r\n    {\r\n      priceInWei=_priceInWei ;\r\n      index= _index ;\r\n      parentContract=_parentContract ;\r\n    }\r\n    receive() external payable\r\n    {\r\n       require(msg.value==priceInWei,\"We don't support partial payments\");\r\n       require(paidWei==0,\"Item is already paid\") ;\r\n       paidWei+=msg.value ;\r\n       (bool success,)=address(parentContract).call.value(msg.value)(abi.encodeWithSignature(\"triggerPayment(uint256)\",index)); \r\n       require(success,\"Delivery did not not work\") ;\r\n    }\r\n    fallback()external{\r\n    }\r\n    \r\n}\r\n",
  "sourcePath": "C:\\Users\\Dell\\SupplyChainSolution\\contracts\\Item.sol",
  "compiler": {
    "name": "solc",
    "version": "0.6.12+commit.27d51765.Emscripten.clang"
  },
  "schemaVersion": "3.3.2",
  "updatedAt": "2020-11-26T21:45:28.228Z",
  "devdoc": {
    "kind": "dev",
    "methods": {},
    "version": 1
  },
  "userdoc": {
    "kind": "user",
    "methods": {},
    "version": 1
  }
}