{
  "contractName": "ItemManager",
  "abi": [
    {
      "anonymous": false,
      "inputs": [
        {
          "indexed": false,
          "internalType": "uint256",
          "name": "_itemIndex",
          "type": "uint256"
        },
        {
          "indexed": false,
          "internalType": "uint256",
          "name": "_step",
          "type": "uint256"
        },
        {
          "indexed": false,
          "internalType": "address",
          "name": "_address",
          "type": "address"
        }
      ],
      "name": "SupplyChainStep",
      "type": "event"
    },
    {
      "inputs": [],
      "name": "_owner",
      "outputs": [
        {
          "internalType": "address",
          "name": "",
          "type": "address"
        }
      ],
      "stateMutability": "view",
      "type": "function",
      "constant": true
    },
    {
      "inputs": [],
      "name": "isOwner",
      "outputs": [
        {
          "internalType": "bool",
          "name": "",
          "type": "bool"
        }
      ],
      "stateMutability": "view",
      "type": "function",
      "constant": true
    },
    {
      "inputs": [
        {
          "internalType": "uint256",
          "name": "",
          "type": "uint256"
        }
      ],
      "name": "items",
      "outputs": [
        {
          "internalType": "contract Item",
          "name": "_item",
          "type": "address"
        },
        {
          "internalType": "enum ItemManager.SupplyChainSteps",
          "name": "_step",
          "type": "uint8"
        },
        {
          "internalType": "string",
          "name": "_identifier",
          "type": "string"
        },
        {
          "internalType": "uint256",
          "name": "_priceInWei",
          "type": "uint256"
        }
      ],
      "stateMutability": "view",
      "type": "function",
      "constant": true
    },
    {
      "inputs": [
        {
          "internalType": "string",
          "name": "_identifier",
          "type": "string"
        },
        {
          "internalType": "uint256",
          "name": "_priceInWei",
          "type": "uint256"
        }
      ],
      "name": "createItem",
      "outputs": [],
      "stateMutability": "nonpayable",
      "type": "function"
    },
    {
      "inputs": [
        {
          "internalType": "uint256",
          "name": "_index",
          "type": "uint256"
        }
      ],
      "name": "triggerPayment",
      "outputs": [],
      "stateMutability": "payable",
      "type": "function",
      "payable": true
    },
    {
      "inputs": [
        {
          "internalType": "uint256",
          "name": "_index",
          "type": "uint256"
        }
      ],
      "name": "triggerDelivery",
      "outputs": [],
      "stateMutability": "nonpayable",
      "type": "function"
    }
  ],
  "bytecode": "0x608060405234801561001057600080fd5b50336000806101000a81548173ffffffffffffffffffffffffffffffffffffffff021916908373ffffffffffffffffffffffffffffffffffffffff160217905550611158806100606000396000f3fe6080604052600436106100555760003560e01c8063800fb83f1461005a5780638c551742146100885780638f32d59b1461015a578063b2bdfa7b14610187578063bfb231d2146101c8578063cd31831e146102b2575b600080fd5b6100866004803603602081101561007057600080fd5b81019080803590602001909291905050506102ed565b005b34801561009457600080fd5b50610158600480360360408110156100ab57600080fd5b81019080803590602001906401000000008111156100c857600080fd5b8201836020820111156100da57600080fd5b803590602001918460018302840111640100000000831117156100fc57600080fd5b91908080601f016020809104026020016040519081016040528093929190818152602001838380828437600081840152601f19601f820116905080830192505050505050509192919290803590602001909291905050506105fb565b005b34801561016657600080fd5b5061016f610839565b60405180821515815260200191505060405180910390f35b34801561019357600080fd5b5061019c610890565b604051808273ffffffffffffffffffffffffffffffffffffffff16815260200191505060405180910390f35b3480156101d457600080fd5b50610201600480360360208110156101eb57600080fd5b81019080803590602001909291905050506108b4565b604051808573ffffffffffffffffffffffffffffffffffffffff16815260200184600281111561022d57fe5b815260200180602001838152602001828103825284818151815260200191508051906020019080838360005b83811015610274578082015181840152602081019050610259565b50505050905090810190601f1680156102a15780820380516001836020036101000a031916815260200191505b509550505050505060405180910390f35b3480156102be57600080fd5b506102eb600480360360208110156102d557600080fd5b81019080803590602001909291905050506109a9565b005b60006001600083815260200190815260200160002060000160009054906101000a900473ffffffffffffffffffffffffffffffffffffffff1690503373ffffffffffffffffffffffffffffffffffffffff168173ffffffffffffffffffffffffffffffffffffffff16146103ac576040517f08c379a000000000000000000000000000000000000000000000000000000000815260040180806020018281038252602b8152602001806110d5602b913960400191505060405180910390fd5b348173ffffffffffffffffffffffffffffffffffffffff16633c8da5886040518163ffffffff1660e01b815260040160206040518083038186803b1580156103f357600080fd5b505afa158015610407573d6000803e3d6000fd5b505050506040513d602081101561041d57600080fd5b8101908080519060200190929190505050146104a1576040517f08c379a00000000000000000000000000000000000000000000000000000000081526004018080602001828103825260128152602001807f4e6f742066756c6c79207061696420796574000000000000000000000000000081525060200191505060405180910390fd5b600060028111156104ae57fe5b60016000600254815260200190815260200160002060000160149054906101000a900460ff1660028111156104df57fe5b14610535576040517f08c379a00000000000000000000000000000000000000000000000000000000081526004018080602001828103825260238152602001806111006023913960400191505060405180910390fd5b600180600084815260200190815260200160002060000160146101000a81548160ff0219169083600281111561056757fe5b02179055507fa4035636e99f06b7651a604c1019fa4e8779fe68ef27eeb74dff2de348f6199b826001600085815260200190815260200160002060000160149054906101000a900460ff1660028111156105bd57fe5b83604051808481526020018381526020018273ffffffffffffffffffffffffffffffffffffffff168152602001935050505060405180910390a15050565b610603610839565b610658576040517f08c379a00000000000000000000000000000000000000000000000000000000081526004018080602001828103825260218152602001806110b46021913960400191505060405180910390fd5b6000308260025460405161066b90610b94565b808473ffffffffffffffffffffffffffffffffffffffff1681526020018381526020018281526020019350505050604051809103906000f0801580156106b5573d6000803e3d6000fd5b5090508060016000600254815260200190815260200160002060000160006101000a81548173ffffffffffffffffffffffffffffffffffffffff021916908373ffffffffffffffffffffffffffffffffffffffff1602179055508160016000600254815260200190815260200160002060020181905550600060016000600254815260200190815260200160002060000160146101000a81548160ff0219169083600281111561076157fe5b0217905550826001600060025481526020019081526020016000206001019080519060200190610792929190610ba1565b507fa4035636e99f06b7651a604c1019fa4e8779fe68ef27eeb74dff2de348f6199b60025460016000600254815260200190815260200160002060000160149054906101000a900460ff1660028111156107e857fe5b83604051808481526020018381526020018273ffffffffffffffffffffffffffffffffffffffff168152602001935050505060405180910390a1600260008154809291906001019190505550505050565b60008060009054906101000a900473ffffffffffffffffffffffffffffffffffffffff1673ffffffffffffffffffffffffffffffffffffffff163373ffffffffffffffffffffffffffffffffffffffff1614905090565b60008054906101000a900473ffffffffffffffffffffffffffffffffffffffff1681565b60016020528060005260406000206000915090508060000160009054906101000a900473ffffffffffffffffffffffffffffffffffffffff16908060000160149054906101000a900460ff1690806001018054600181600116156101000203166002900480601f0160208091040260200160405190810160405280929190818152602001828054600181600116156101000203166002900480156109995780601f1061096e57610100808354040283529160200191610999565b820191906000526020600020905b81548152906001019060200180831161097c57829003601f168201915b5050505050908060020154905084565b6109b1610839565b610a06576040517f08c379a00000000000000000000000000000000000000000000000000000000081526004018080602001828103825260218152602001806110b46021913960400191505060405180910390fd5b60016002811115610a1357fe5b6001600083815260200190815260200160002060000160149054906101000a900460ff166002811115610a4257fe5b14610a98576040517f08c379a00000000000000000000000000000000000000000000000000000000081526004018080602001828103825260238152602001806111006023913960400191505060405180910390fd5b60026001600083815260200190815260200160002060000160146101000a81548160ff02191690836002811115610acb57fe5b02179055507fa4035636e99f06b7651a604c1019fa4e8779fe68ef27eeb74dff2de348f6199b816001600084815260200190815260200160002060000160149054906101000a900460ff166002811115610b2157fe5b6001600085815260200190815260200160002060000160009054906101000a900473ffffffffffffffffffffffffffffffffffffffff16604051808481526020018381526020018273ffffffffffffffffffffffffffffffffffffffff168152602001935050505060405180910390a150565b61047580610c3f83390190565b828054600181600116156101000203166002900490600052602060002090601f016020900481019282601f10610be257805160ff1916838001178555610c10565b82800160010185558215610c10579182015b82811115610c0f578251825591602001919060010190610bf4565b5b509050610c1d9190610c21565b5090565b5b80821115610c3a576000816000905550600101610c22565b509056fe608060405234801561001057600080fd5b506040516104753803806104758339818101604052606081101561003357600080fd5b81019080805190602001909291908051906020019092919080519060200190929190505050816000819055508060028190555082600360006101000a81548173ffffffffffffffffffffffffffffffffffffffff021916908373ffffffffffffffffffffffffffffffffffffffff1602179055505050506103bc806100b96000396000f3fe60806040526004361061002d5760003560e01c80632986c0e5146103035780633c8da5881461032e576102f4565b366102f457600054341461008c576040517f08c379a00000000000000000000000000000000000000000000000000000000081526004018080602001828103825260218152602001806103666021913960400191505060405180910390fd5b600060015414610104576040517f08c379a00000000000000000000000000000000000000000000000000000000081526004018080602001828103825260148152602001807f4974656d20697320616c7265616479207061696400000000000000000000000081525060200191505060405180910390fd5b346001600082825401925050819055506000600360009054906101000a900473ffffffffffffffffffffffffffffffffffffffff1673ffffffffffffffffffffffffffffffffffffffff1634600254604051602401808281526020019150506040516020818303038152906040527f800fb83f000000000000000000000000000000000000000000000000000000007bffffffffffffffffffffffffffffffffffffffffffffffffffffffff19166020820180517bffffffffffffffffffffffffffffffffffffffffffffffffffffffff83818316178352505050506040518082805190602001908083835b6020831061021357805182526020820191506020810190506020830392506101f0565b6001836020036101000a03801982511681845116808217855250505050505090500191505060006040518083038185875af1925050503d8060008114610275576040519150601f19603f3d011682016040523d82523d6000602084013e61027a565b606091505b50509050806102f1576040517f08c379a00000000000000000000000000000000000000000000000000000000081526004018080602001828103825260198152602001807f44656c697665727920646964206e6f74206e6f7420776f726b0000000000000081525060200191505060405180910390fd5b50005b34801561030057600080fd5b50005b34801561030f57600080fd5b50610318610359565b6040518082815260200191505060405180910390f35b34801561033a57600080fd5b5061034361035f565b6040518082815260200191505060405180910390f35b60025481565b6000548156fe576520646f6e277420737570706f7274207061727469616c207061796d656e7473a2646970667358221220716c805fb9f923525e6c434ffea3586c6e495f9c9b9a79542ad1e2ca8baf1dac64736f6c634300060c00334f776e61626c65203a2063616c6c6572206973206e6f7420746865206f776e65724f6e6c79206974656d732061726520616c6c6f77656420746f20757064617465207468656d73656c7665734974656d206973206675727468657220696e2074686520737570706c7920636861696ea264697066735822122090fae6369ed78b2ca14465d8622100d20cb1ce2e074ca6fbc895def013f11de464736f6c634300060c0033",
  "immutableReferences": {},
  "source": "pragma solidity ^0.6.0;\r\nimport \"./Item.sol\";\r\nimport \"./Ownable.sol\";\r\ncontract ItemManager is Ownable{\r\n    enum SupplyChainSteps{Created,Paid,Delivered}\r\n    \r\n    struct S_Item\r\n    {\r\n        Item  _item ;\r\n        ItemManager.SupplyChainSteps _step ;\r\n        string _identifier ;\r\n    uint _priceInWei ;\r\n    }\r\n    mapping(uint =>S_Item) public items ;\r\n    uint index ;\r\n    \r\n    event SupplyChainStep(uint _itemIndex, uint _step,address _address) ;\r\n    function createItem(string memory _identifier, uint _priceInWei) public onlyOwner\r\n     {\r\n        Item item= new Item(this, _priceInWei, index);\r\n        items[index]._item = item;\r\n        items[index]._priceInWei=_priceInWei;\r\n        items[index]._step=SupplyChainSteps.Created ;\r\n        items[index]._identifier=_identifier;\r\n        emit SupplyChainStep( index, uint (items[index]._step),address(item));\r\n        index++;\r\n    }\r\n   function triggerPayment(uint _index) public payable \r\n   {\r\n       Item item=items[_index]._item ;\r\n       require(address(item)==msg.sender,\"Only items are allowed to update themselves\") ;\r\n       require(item.priceInWei()==msg.value,\"Not fully paid yet\") ;\r\n       \r\n       require(items[index]._step==SupplyChainSteps.Created,\"Item is further in the supply chain\") ;\r\n       items[_index]._step=SupplyChainSteps.Paid ;\r\n       emit SupplyChainStep(_index,uint(items[_index]._step),address(item));\r\n   }\r\n   function triggerDelivery(uint _index) public onlyOwner\r\n   {\r\n       require(items[_index]._step==SupplyChainSteps.Paid,\"Item is further in the supply chain\") ;\r\n       items[_index]._step=SupplyChainSteps.Delivered ;\r\n       emit SupplyChainStep(_index, uint(items[_index]._step),address(items[_index]._item)) ;\r\n   }\r\n}\r\n\r\n",
  "sourcePath": "C:\\Users\\Dell\\SupplyChainSolution\\contracts\\ItemManager.sol",
  "compiler": {
    "name": "solc",
    "version": "0.6.12+commit.27d51765.Emscripten.clang"
  },
  "schemaVersion": "3.3.2",
  "updatedAt": "2020-11-26T21:45:36.157Z",
  "networkType": "ethereum",
  "devdoc": {
    "kind": "dev",
    "methods": {},
    "version": 1
  },
  "userdoc": {
    "kind": "user",
    "methods": {},
    "version": 1
  }
}